{
  "contractName": "Checkpoint",
  "abi": [
    {
      "constant": true,
      "inputs": [],
      "name": "owner",
      "outputs": [
        {
          "name": "",
          "type": "address"
        }
      ],
      "payable": false,
      "stateMutability": "view",
      "type": "function"
    },
    {
      "constant": true,
      "inputs": [
        {
          "name": "",
          "type": "uint256"
        }
      ],
      "name": "checkpoints",
      "outputs": [
        {
          "name": "",
          "type": "bytes32"
        }
      ],
      "payable": false,
      "stateMutability": "view",
      "type": "function"
    },
    {
      "constant": true,
      "inputs": [],
      "name": "checkpointId",
      "outputs": [
        {
          "name": "",
          "type": "uint256"
        }
      ],
      "payable": false,
      "stateMutability": "view",
      "type": "function"
    },
    {
      "anonymous": false,
      "inputs": [
        {
          "indexed": true,
          "name": "checkpointId",
          "type": "uint256"
        }
      ],
      "name": "LogCheckpoint",
      "type": "event"
    },
    {
      "constant": false,
      "inputs": [
        {
          "name": "_owner",
          "type": "address"
        }
      ],
      "name": "constructor",
      "outputs": [],
      "payable": false,
      "stateMutability": "nonpayable",
      "type": "function"
    },
    {
      "constant": false,
      "inputs": [
        {
          "name": "root",
          "type": "bytes32"
        }
      ],
      "name": "checkpoint",
      "outputs": [],
      "payable": false,
      "stateMutability": "nonpayable",
      "type": "function"
    }
  ],
  "bytecode": "0x6080604052600060015534801561001557600080fd5b506102c5806100256000396000f30060806040526004361061006d576000357c0100000000000000000000000000000000000000000000000000000000900463ffffffff1680635b34eba0146100725780638da5cb5b146100a3578063b8a24252146100fa578063c18abbeb14610143578063f8a6c5951461016e575b600080fd5b34801561007e57600080fd5b506100a160048036038101908080356000191690602001909291905050506101b1565b005b3480156100af57600080fd5b506100b8610213565b604051808273ffffffffffffffffffffffffffffffffffffffff1673ffffffffffffffffffffffffffffffffffffffff16815260200191505060405180910390f35b34801561010657600080fd5b5061012560048036038101908080359060200190929190505050610238565b60405180826000191660001916815260200191505060405180910390f35b34801561014f57600080fd5b50610158610250565b6040518082815260200191505060405180910390f35b34801561017a57600080fd5b506101af600480360381019080803573ffffffffffffffffffffffffffffffffffffffff169060200190929190505050610256565b005b8060026000600154815260200190815260200160002081600019169055506001547ff33e784ea02a76519c911149a08a2f29a8e2f3ee4bb824b7080c09bf635d692f60405160405180910390a260016000815480929190600101919050555050565b6000809054906101000a900473ffffffffffffffffffffffffffffffffffffffff1681565b60026020528060005260406000206000915090505481565b60015481565b806000806101000a81548173ffffffffffffffffffffffffffffffffffffffff021916908373ffffffffffffffffffffffffffffffffffffffff160217905550505600a165627a7a723058206b256e1eeeb02d1522f9eedc8ef6c17a54d3e0d3df55b23eeeade0051fb33e100029",
  "source": "pragma solidity ^0.4.23;\n\ncontract Checkpoint {\n  address public owner;\n  uint256 public checkpointId = 0;\n\n  mapping(uint256 => bytes32) public checkpoints;\n\n  event LogCheckpoint(uint256 indexed checkpointId);\n\n  function constructor(address _owner) {\n    owner = _owner;\n  }\n\n  function checkpoint(bytes32 root) public {\n    checkpoints[checkpointId] = root;\n\n    emit LogCheckpoint(checkpointId);\n    checkpointId++;\n  }\n}\n",
  "sourcePath": "/Users/mota/Sandbox/c3-ethereum-contracts/contracts/Checkpoint.sol",
  "compiler": {
    "name": "solc",
    "version": "0.4.24+commit.e67f0147.Emscripten.clang"
  },
  "schemaVersion": "2.0.1",
  "updatedAt": "2018-10-22T07:43:14.463Z"
}