{
  "contractName": "Checkpoint",
  "abi": [
    {
      "constant": false,
      "inputs": [],
      "name": "renounceOwnership",
      "outputs": [],
      "payable": false,
      "stateMutability": "nonpayable",
      "type": "function"
    },
    {
      "constant": true,
      "inputs": [],
      "name": "owner",
      "outputs": [
        {
          "name": "",
          "type": "address"
        }
      ],
      "payable": false,
      "stateMutability": "view",
      "type": "function"
    },
    {
      "constant": true,
      "inputs": [],
      "name": "isOwner",
      "outputs": [
        {
          "name": "",
          "type": "bool"
        }
      ],
      "payable": false,
      "stateMutability": "view",
      "type": "function"
    },
    {
      "constant": true,
      "inputs": [
        {
          "name": "",
          "type": "uint256"
        }
      ],
      "name": "checkpoints",
      "outputs": [
        {
          "name": "",
          "type": "uint256"
        }
      ],
      "payable": false,
      "stateMutability": "view",
      "type": "function"
    },
    {
      "constant": true,
      "inputs": [],
      "name": "checkpointId",
      "outputs": [
        {
          "name": "",
          "type": "uint256"
        }
      ],
      "payable": false,
      "stateMutability": "view",
      "type": "function"
    },
    {
      "constant": false,
      "inputs": [
        {
          "name": "newOwner",
          "type": "address"
        }
      ],
      "name": "transferOwnership",
      "outputs": [],
      "payable": false,
      "stateMutability": "nonpayable",
      "type": "function"
    },
    {
      "inputs": [
        {
          "name": "_owner",
          "type": "address"
        }
      ],
      "payable": false,
      "stateMutability": "nonpayable",
      "type": "constructor"
    },
    {
      "anonymous": false,
      "inputs": [
        {
          "indexed": true,
          "name": "checkpointId",
          "type": "uint256"
        }
      ],
      "name": "LogCheckpoint",
      "type": "event"
    },
    {
      "anonymous": false,
      "inputs": [
        {
          "indexed": true,
          "name": "previousOwner",
          "type": "address"
        },
        {
          "indexed": true,
          "name": "newOwner",
          "type": "address"
        }
      ],
      "name": "OwnershipTransferred",
      "type": "event"
    },
    {
      "constant": false,
      "inputs": [
        {
          "name": "root",
          "type": "uint256"
        }
      ],
      "name": "checkpoint",
      "outputs": [],
      "payable": false,
      "stateMutability": "nonpayable",
      "type": "function"
    },
    {
      "constant": true,
      "inputs": [
        {
          "name": "proof",
          "type": "bytes32[]"
        },
        {
          "name": "root",
          "type": "bytes32"
        },
        {
          "name": "leaf",
          "type": "bytes32"
        }
      ],
      "name": "verify",
      "outputs": [
        {
          "name": "",
          "type": "bool"
        }
      ],
      "payable": false,
      "stateMutability": "pure",
      "type": "function"
    }
  ],
  "bytecode": "0x6080604052600060025534801561001557600080fd5b50604051602080610a3183398101806040528101908080519060200190929190505050336000806101000a81548173ffffffffffffffffffffffffffffffffffffffff021916908373ffffffffffffffffffffffffffffffffffffffff1602179055506000809054906101000a900473ffffffffffffffffffffffffffffffffffffffff1673ffffffffffffffffffffffffffffffffffffffff16600073ffffffffffffffffffffffffffffffffffffffff167f8be0079c531659141344cd1fd0a4f28419497f9722a3daafe3b4186f6b6457e060405160405180910390a361010c81610112640100000000026401000000009004565b506102a0565b61012961014f640100000000026401000000009004565b151561013457600080fd5b61014c816101a6640100000000026401000000009004565b50565b60008060009054906101000a900473ffffffffffffffffffffffffffffffffffffffff1673ffffffffffffffffffffffffffffffffffffffff163373ffffffffffffffffffffffffffffffffffffffff1614905090565b600073ffffffffffffffffffffffffffffffffffffffff168173ffffffffffffffffffffffffffffffffffffffff16141515156101e257600080fd5b8073ffffffffffffffffffffffffffffffffffffffff166000809054906101000a900473ffffffffffffffffffffffffffffffffffffffff1673ffffffffffffffffffffffffffffffffffffffff167f8be0079c531659141344cd1fd0a4f28419497f9722a3daafe3b4186f6b6457e060405160405180910390a3806000806101000a81548173ffffffffffffffffffffffffffffffffffffffff021916908373ffffffffffffffffffffffffffffffffffffffff16021790555050565b610782806102af6000396000f30060806040526004361061008e576000357c0100000000000000000000000000000000000000000000000000000000900463ffffffff1680635a9a49c714610093578063715018a61461012d5780638da5cb5b146101445780638f32d59b1461019b578063b8a24252146101ca578063c18abbeb1461020b578063ed64bab214610236578063f2fde38b14610263575b600080fd5b34801561009f57600080fd5b5061011360048036038101908080359060200190820180359060200190808060200260200160405190810160405280939291908181526020018383602002808284378201915050505050509192919290803560001916906020019092919080356000191690602001909291905050506102a6565b604051808215151515815260200191505060405180910390f35b34801561013957600080fd5b506101426102bc565b005b34801561015057600080fd5b5061015961038e565b604051808273ffffffffffffffffffffffffffffffffffffffff1673ffffffffffffffffffffffffffffffffffffffff16815260200191505060405180910390f35b3480156101a757600080fd5b506101b06103b4565b604051808215151515815260200191505060405180910390f35b3480156101d657600080fd5b506101f56004803603810190808035906020019092919050505061040b565b6040518082815260200191505060405180910390f35b34801561021757600080fd5b50610220610423565b6040518082815260200191505060405180910390f35b34801561024257600080fd5b5061026160048036038101908080359060200190929190505050610429565b005b34801561026f57600080fd5b506102a4600480360381019080803573ffffffffffffffffffffffffffffffffffffffff16906020019092919050505061049a565b005b60006102b38484846104b9565b90509392505050565b6102c46103b4565b15156102cf57600080fd5b600073ffffffffffffffffffffffffffffffffffffffff166000809054906101000a900473ffffffffffffffffffffffffffffffffffffffff1673ffffffffffffffffffffffffffffffffffffffff167f8be0079c531659141344cd1fd0a4f28419497f9722a3daafe3b4186f6b6457e060405160405180910390a360008060006101000a81548173ffffffffffffffffffffffffffffffffffffffff021916908373ffffffffffffffffffffffffffffffffffffffff160217905550565b600160009054906101000a900473ffffffffffffffffffffffffffffffffffffffff1681565b60008060009054906101000a900473ffffffffffffffffffffffffffffffffffffffff1673ffffffffffffffffffffffffffffffffffffffff163373ffffffffffffffffffffffffffffffffffffffff1614905090565b60036020528060005260406000206000915090505481565b60025481565b6104316103b4565b151561043c57600080fd5b80600360006002548152602001908152602001600020819055506002547ff33e784ea02a76519c911149a08a2f29a8e2f3ee4bb824b7080c09bf635d692f60405160405180910390a260026000815480929190600101919050555050565b6104a26103b4565b15156104ad57600080fd5b6104b68161065c565b50565b600080600080849250600091505b86518210156106455786828151811015156104de57fe5b90602001906020020151905080600019168360001916101561059b5782816040516020018083600019166000191681526020018260001916600019168152602001925050506040516020818303038152906040526040518082805190602001908083835b6020831015156105675780518252602082019150602081019050602083039250610542565b6001836020036101000a03801982511681845116808217855250505050505090500191505060405180910390209250610638565b80836040516020018083600019166000191681526020018260001916600019168152602001925050506040516020818303038152906040526040518082805190602001908083835b60208310151561060857805182526020820191506020810190506020830392506105e3565b6001836020036101000a038019825116818451168082178552505050505050905001915050604051809103902092505b81806001019250506104c7565b856000191683600019161493505050509392505050565b600073ffffffffffffffffffffffffffffffffffffffff168173ffffffffffffffffffffffffffffffffffffffff161415151561069857600080fd5b8073ffffffffffffffffffffffffffffffffffffffff166000809054906101000a900473ffffffffffffffffffffffffffffffffffffffff1673ffffffffffffffffffffffffffffffffffffffff167f8be0079c531659141344cd1fd0a4f28419497f9722a3daafe3b4186f6b6457e060405160405180910390a3806000806101000a81548173ffffffffffffffffffffffffffffffffffffffff021916908373ffffffffffffffffffffffffffffffffffffffff160217905550505600a165627a7a72305820ae728292f17294f44879cc7e7e5eb5d538fbd3717156c7706abf619a23ec2cbb0029",
  "source": "pragma solidity ^0.4.23;\n\nimport \"./Ownable.sol\";\nimport { MerkleProof } from \"./MerkleProof.sol\";\n\ncontract Checkpoint is Ownable {\n  address public owner;\n  uint256 public checkpointId = 0;\n\n  mapping(uint256 => uint256) public checkpoints;\n\n  event LogCheckpoint(uint256 indexed checkpointId);\n\n  // TODO: owner should be multisig of nodes\n  constructor(address _owner) public {\n    transferOwnership(_owner);\n  }\n\n  // TODO: pass sigs and check sigs of root provided\n  function checkpoint(uint256 root) public onlyOwner {\n    checkpoints[checkpointId] = root;\n\n    emit LogCheckpoint(checkpointId);\n    checkpointId++;\n  }\n\n  function verify(\n    bytes32[] proof,\n    bytes32 root,\n    bytes32 leaf\n  )\n    public\n    pure\n    returns (bool)\n  {\n    return MerkleProof.verify(proof, root, leaf);\n  }\n}\n",
  "sourcePath": "/Users/mota/Sandbox/c3-ethereum-contracts/contracts/Checkpoint.sol",
  "compiler": {
    "name": "solc",
    "version": "0.4.24+commit.e67f0147.Emscripten.clang"
  },
  "schemaVersion": "2.0.1",
  "updatedAt": "2018-11-09T10:38:45.820Z"
}